{"abi":[{"type":"constructor","inputs":[{"name":"_manager","type":"address","internalType":"address"},{"name":"_owner","type":"address","internalType":"address"}],"stateMutability":"nonpayable"},{"type":"function","name":"approve","inputs":[{"name":"to","type":"address","internalType":"address"},{"name":"tokenId","type":"uint256","internalType":"uint256"}],"outputs":[],"stateMutability":"nonpayable"},{"type":"function","name":"balanceOf","inputs":[{"name":"owner","type":"address","internalType":"address"}],"outputs":[{"name":"","type":"uint256","internalType":"uint256"}],"stateMutability":"view"},{"type":"function","name":"frozen","inputs":[{"name":"tokenId","type":"uint256","internalType":"uint256"}],"outputs":[{"name":"","type":"bool","internalType":"bool"}],"stateMutability":"view"},{"type":"function","name":"getApproved","inputs":[{"name":"tokenId","type":"uint256","internalType":"uint256"}],"outputs":[{"name":"","type":"address","internalType":"address"}],"stateMutability":"view"},{"type":"function","name":"getFreezeNonce","inputs":[{"name":"tokenId","type":"uint256","internalType":"uint256"}],"outputs":[{"name":"nonce","type":"uint256","internalType":"uint256"}],"stateMutability":"view"},{"type":"function","name":"getMintedAt","inputs":[{"name":"tokenId","type":"uint256","internalType":"uint256"}],"outputs":[{"name":"","type":"uint256","internalType":"uint256"}],"stateMutability":"view"},{"type":"function","name":"getOwner","inputs":[{"name":"tokenId","type":"uint256","internalType":"uint256"}],"outputs":[{"name":"","type":"address","internalType":"address"}],"stateMutability":"view"},{"type":"function","name":"getScopeName","inputs":[],"outputs":[{"name":"","type":"string","internalType":"string"}],"stateMutability":"view"},{"type":"function","name":"getTokenId","inputs":[{"name":"tokenId","type":"uint256","internalType":"uint256"}],"outputs":[{"name":"","type":"uint256","internalType":"uint256"}],"stateMutability":"view"},{"type":"function","name":"imageURI","inputs":[{"name":"tokenId","type":"uint256","internalType":"uint256"}],"outputs":[{"name":"","type":"string","internalType":"string"}],"stateMutability":"pure"},{"type":"function","name":"isApprovedForAll","inputs":[{"name":"owner","type":"address","internalType":"address"},{"name":"operator","type":"address","internalType":"address"}],"outputs":[{"name":"","type":"bool","internalType":"bool"}],"stateMutability":"view"},{"type":"function","name":"loadPackedMetadata","inputs":[{"name":"tokenId","type":"uint256","internalType":"uint256"}],"outputs":[{"name":"","type":"uint256[]","internalType":"uint256[]"}],"stateMutability":"view"},{"type":"function","name":"loadPackedMetadataSlot","inputs":[{"name":"tokenId","type":"uint256","internalType":"uint256"},{"name":"slot","type":"uint256","internalType":"uint256"}],"outputs":[{"name":"","type":"uint256","internalType":"uint256"}],"stateMutability":"view"},{"type":"function","name":"locked","inputs":[{"name":"tokenId","type":"uint256","internalType":"uint256"}],"outputs":[{"name":"","type":"bool","internalType":"bool"}],"stateMutability":"view"},{"type":"function","name":"mint","inputs":[{"name":"to","type":"address","internalType":"address"},{"name":"data","type":"bytes","internalType":"bytes"}],"outputs":[{"name":"tokenId","type":"uint256","internalType":"uint256"}],"stateMutability":"payable"},{"type":"function","name":"mintBatch","inputs":[{"name":"to","type":"address","internalType":"address"},{"name":"data","type":"bytes","internalType":"bytes"},{"name":"quantity","type":"uint256","internalType":"uint256"}],"outputs":[{"name":"tokenIds","type":"uint256[]","internalType":"uint256[]"}],"stateMutability":"payable"},{"type":"function","name":"mintWithReferral","inputs":[{"name":"to","type":"address","internalType":"address"},{"name":"refer","type":"address","internalType":"address"},{"name":"data","type":"bytes","internalType":"bytes"}],"outputs":[{"name":"tokenId","type":"uint256","internalType":"uint256"}],"stateMutability":"payable"},{"type":"function","name":"name","inputs":[],"outputs":[{"name":"","type":"string","internalType":"string"}],"stateMutability":"view"},{"type":"function","name":"owner","inputs":[],"outputs":[{"name":"","type":"address","internalType":"address"}],"stateMutability":"view"},{"type":"function","name":"ownerOf","inputs":[{"name":"tokenId","type":"uint256","internalType":"uint256"}],"outputs":[{"name":"","type":"address","internalType":"address"}],"stateMutability":"view"},{"type":"function","name":"packMetadata","inputs":[{"name":"data","type":"tuple","internalType":"struct DockHiveNFT.Metadata","components":[{"name":"token_id","type":"uint256","internalType":"uint256"},{"name":"minted_at","type":"uint256","internalType":"uint256"},{"name":"owner","type":"address","internalType":"address"}]}],"outputs":[{"name":"slots","type":"uint256[]","internalType":"uint256[]"}],"stateMutability":"pure"},{"type":"function","name":"renounceOwnership","inputs":[],"outputs":[],"stateMutability":"nonpayable"},{"type":"function","name":"safeTransferFrom","inputs":[{"name":"from","type":"address","internalType":"address"},{"name":"to","type":"address","internalType":"address"},{"name":"tokenId","type":"uint256","internalType":"uint256"}],"outputs":[],"stateMutability":"nonpayable"},{"type":"function","name":"safeTransferFrom","inputs":[{"name":"from","type":"address","internalType":"address"},{"name":"to","type":"address","internalType":"address"},{"name":"tokenId","type":"uint256","internalType":"uint256"},{"name":"data","type":"bytes","internalType":"bytes"}],"outputs":[],"stateMutability":"nonpayable"},{"type":"function","name":"safeTransferFromWithFreezeNonce","inputs":[{"name":"from","type":"address","internalType":"address"},{"name":"to","type":"address","internalType":"address"},{"name":"tokenId","type":"uint256","internalType":"uint256"},{"name":"nonce","type":"uint256","internalType":"uint256"}],"outputs":[],"stateMutability":"nonpayable"},{"type":"function","name":"safeTransferFromWithFreezeNonce","inputs":[{"name":"from","type":"address","internalType":"address"},{"name":"to","type":"address","internalType":"address"},{"name":"tokenId","type":"uint256","internalType":"uint256"},{"name":"data","type":"bytes","internalType":"bytes"},{"name":"nonce","type":"uint256","internalType":"uint256"}],"outputs":[],"stateMutability":"nonpayable"},{"type":"function","name":"schema","inputs":[],"outputs":[{"name":"","type":"tuple","internalType":"struct IPatchworkMetadata.MetadataSchema","components":[{"name":"version","type":"uint256","internalType":"uint256"},{"name":"entries","type":"tuple[]","internalType":"struct IPatchworkMetadata.MetadataSchemaEntry[]","components":[{"name":"id","type":"uint256","internalType":"uint256"},{"name":"permissionId","type":"uint256","internalType":"uint256"},{"name":"fieldType","type":"uint8","internalType":"enum IPatchworkMetadata.FieldType"},{"name":"fieldCount","type":"uint256","internalType":"uint256"},{"name":"visibility","type":"uint8","internalType":"enum IPatchworkMetadata.FieldVisibility"},{"name":"slot","type":"uint256","internalType":"uint256"},{"name":"offset","type":"uint256","internalType":"uint256"},{"name":"key","type":"string","internalType":"string"}]}]}],"stateMutability":"view"},{"type":"function","name":"schemaURI","inputs":[],"outputs":[{"name":"","type":"string","internalType":"string"}],"stateMutability":"pure"},{"type":"function","name":"setApprovalForAll","inputs":[{"name":"operator","type":"address","internalType":"address"},{"name":"approved","type":"bool","internalType":"bool"}],"outputs":[],"stateMutability":"nonpayable"},{"type":"function","name":"setFrozen","inputs":[{"name":"tokenId","type":"uint256","internalType":"uint256"},{"name":"frozen_","type":"bool","internalType":"bool"}],"outputs":[],"stateMutability":"nonpayable"},{"type":"function","name":"setLocked","inputs":[{"name":"tokenId","type":"uint256","internalType":"uint256"},{"name":"locked_","type":"bool","internalType":"bool"}],"outputs":[],"stateMutability":"nonpayable"},{"type":"function","name":"setMintedAt","inputs":[{"name":"tokenId","type":"uint256","internalType":"uint256"},{"name":"minted_at","type":"uint256","internalType":"uint256"}],"outputs":[],"stateMutability":"nonpayable"},{"type":"function","name":"setOwner","inputs":[{"name":"tokenId","type":"uint256","internalType":"uint256"},{"name":"newOwner","type":"address","internalType":"address"}],"outputs":[],"stateMutability":"nonpayable"},{"type":"function","name":"setPermissions","inputs":[{"name":"to","type":"address","internalType":"address"},{"name":"permissions","type":"uint256","internalType":"uint256"}],"outputs":[],"stateMutability":"nonpayable"},{"type":"function","name":"setTokenURI","inputs":[{"name":"tokenId","type":"uint256","internalType":"uint256"},{"name":"_tokenURI","type":"string","internalType":"string"}],"outputs":[],"stateMutability":"nonpayable"},{"type":"function","name":"storePackedMetadata","inputs":[{"name":"tokenId","type":"uint256","internalType":"uint256"},{"name":"data","type":"uint256[]","internalType":"uint256[]"}],"outputs":[],"stateMutability":"nonpayable"},{"type":"function","name":"storePackedMetadataSlot","inputs":[{"name":"tokenId","type":"uint256","internalType":"uint256"},{"name":"slot","type":"uint256","internalType":"uint256"},{"name":"data","type":"uint256","internalType":"uint256"}],"outputs":[],"stateMutability":"nonpayable"},{"type":"function","name":"supportsInterface","inputs":[{"name":"interfaceID","type":"bytes4","internalType":"bytes4"}],"outputs":[{"name":"","type":"bool","internalType":"bool"}],"stateMutability":"view"},{"type":"function","name":"symbol","inputs":[],"outputs":[{"name":"","type":"string","internalType":"string"}],"stateMutability":"view"},{"type":"function","name":"tokenURI","inputs":[{"name":"tokenId","type":"uint256","internalType":"uint256"}],"outputs":[{"name":"","type":"string","internalType":"string"}],"stateMutability":"view"},{"type":"function","name":"transferFrom","inputs":[{"name":"from","type":"address","internalType":"address"},{"name":"to","type":"address","internalType":"address"},{"name":"tokenId","type":"uint256","internalType":"uint256"}],"outputs":[],"stateMutability":"nonpayable"},{"type":"function","name":"transferFromWithFreezeNonce","inputs":[{"name":"from","type":"address","internalType":"address"},{"name":"to","type":"address","internalType":"address"},{"name":"tokenId","type":"uint256","internalType":"uint256"},{"name":"nonce","type":"uint256","internalType":"uint256"}],"outputs":[],"stateMutability":"nonpayable"},{"type":"function","name":"transferOwnership","inputs":[{"name":"newOwner","type":"address","internalType":"address"}],"outputs":[],"stateMutability":"nonpayable"},{"type":"function","name":"unpackMetadata","inputs":[{"name":"slots","type":"uint256[]","internalType":"uint256[]"}],"outputs":[{"name":"data","type":"tuple","internalType":"struct DockHiveNFT.Metadata","components":[{"name":"token_id","type":"uint256","internalType":"uint256"},{"name":"minted_at","type":"uint256","internalType":"uint256"},{"name":"owner","type":"address","internalType":"address"}]}],"stateMutability":"pure"},{"type":"event","name":"Approval","inputs":[{"name":"owner","type":"address","indexed":true,"internalType":"address"},{"name":"approved","type":"address","indexed":true,"internalType":"address"},{"name":"tokenId","type":"uint256","indexed":true,"internalType":"uint256"}],"anonymous":false},{"type":"event","name":"ApprovalForAll","inputs":[{"name":"owner","type":"address","indexed":true,"internalType":"address"},{"name":"operator","type":"address","indexed":true,"internalType":"address"},{"name":"approved","type":"bool","indexed":false,"internalType":"bool"}],"anonymous":false},{"type":"event","name":"BatchMetadataUpdate","inputs":[{"name":"_fromTokenId","type":"uint256","indexed":true,"internalType":"uint256"},{"name":"_toTokenId","type":"uint256","indexed":true,"internalType":"uint256"}],"anonymous":false},{"type":"event","name":"Frozen","inputs":[{"name":"tokenId","type":"uint256","indexed":true,"internalType":"uint256"}],"anonymous":false},{"type":"event","name":"Locked","inputs":[{"name":"tokenId","type":"uint256","indexed":true,"internalType":"uint256"}],"anonymous":false},{"type":"event","name":"MetadataUpdate","inputs":[{"name":"_tokenId","type":"uint256","indexed":true,"internalType":"uint256"}],"anonymous":false},{"type":"event","name":"MintWithReferral","inputs":[{"name":"tokenId","type":"uint256","indexed":false,"internalType":"uint256"},{"name":"referTokenId","type":"uint256","indexed":false,"internalType":"uint256"},{"name":"refer","type":"address","indexed":false,"internalType":"address"}],"anonymous":false},{"type":"event","name":"OwnershipTransferred","inputs":[{"name":"previousOwner","type":"address","indexed":true,"internalType":"address"},{"name":"newOwner","type":"address","indexed":true,"internalType":"address"}],"anonymous":false},{"type":"event","name":"PermissionChange","inputs":[{"name":"to","type":"address","indexed":true,"internalType":"address"},{"name":"permissions","type":"uint256","indexed":false,"internalType":"uint256"}],"anonymous":false},{"type":"event","name":"SchemaChange","inputs":[{"name":"addr","type":"address","indexed":true,"internalType":"address"}],"anonymous":false},{"type":"event","name":"Thawed","inputs":[{"name":"tokenId","type":"uint256","indexed":true,"internalType":"uint256"}],"anonymous":false},{"type":"event","name":"Transfer","inputs":[{"name":"from","type":"address","indexed":true,"internalType":"address"},{"name":"to","type":"address","indexed":true,"internalType":"address"},{"name":"tokenId","type":"uint256","indexed":true,"internalType":"uint256"}],"anonymous":false},{"type":"event","name":"Unlocked","inputs":[{"name":"tokenId","type":"uint256","indexed":true,"internalType":"uint256"}],"anonymous":false},{"type":"error","name":"ERC721IncorrectOwner","inputs":[{"name":"sender","type":"address","internalType":"address"},{"name":"tokenId","type":"uint256","internalType":"uint256"},{"name":"owner","type":"address","internalType":"address"}]},{"type":"error","name":"ERC721InsufficientApproval","inputs":[{"name":"operator","type":"address","internalType":"address"},{"name":"tokenId","type":"uint256","internalType":"uint256"}]},{"type":"error","name":"ERC721InvalidApprover","inputs":[{"name":"approver","type":"address","internalType":"address"}]},{"type":"error","name":"ERC721InvalidOperator","inputs":[{"name":"operator","type":"address","internalType":"address"}]},{"type":"error","name":"ERC721InvalidOwner","inputs":[{"name":"owner","type":"address","internalType":"address"}]},{"type":"error","name":"ERC721InvalidReceiver","inputs":[{"name":"receiver","type":"address","internalType":"address"}]},{"type":"error","name":"ERC721InvalidSender","inputs":[{"name":"sender","type":"address","internalType":"address"}]},{"type":"error","name":"ERC721NonexistentToken","inputs":[{"name":"tokenId","type":"uint256","internalType":"uint256"}]},{"type":"error","name":"IncorrectNonce","inputs":[{"name":"addr","type":"address","internalType":"address"},{"name":"tokenId","type":"uint256","internalType":"uint256"},{"name":"nonce","type":"uint256","internalType":"uint256"}]},{"type":"error","name":"NotAuthorized","inputs":[{"name":"addr","type":"address","internalType":"address"}]},{"type":"error","name":"NotFrozen","inputs":[{"name":"addr","type":"address","internalType":"address"},{"name":"tokenId","type":"uint256","internalType":"uint256"}]},{"type":"error","name":"OwnableInvalidOwner","inputs":[{"name":"owner","type":"address","internalType":"address"}]},{"type":"error","name":"OwnableUnauthorizedAccount","inputs":[{"name":"account","type":"address","internalType":"address"}]}],"bytecode":{"object":"0x60a060405234801561001057600080fd5b506040516133fc3803806133fc83398101604081905261002f91610438565b60405180604001604052806008815260200167446f636b4869766560c01b8152506040518060400160405280600b81526020016a111bd8dad21a5d9953919560aa1b8152506040518060400160405280600381526020016222242760e91b815250848480848481600090816100a4919061050a565b5060016100b1828261050a565b5050506001600160a01b0381166100e257604051631e4fbdf760e01b81526000600482015260240160405180910390fd5b6100eb816103ca565b5060076100f8868261050a565b50506001600160a01b031660809081526040805161018081019091526001918101918252600060a082018190529450925082915060c08201600c815260016020820152604001600081526020016000815260200160008152602001604051806040016040528060088152602001671d1bdad95b97da5960c21b81525081525081526020016040518061010001604052806002815260200160008152602001600c60138111156101a9576101a96105c8565b815260016020820152604001600081526020016001815260200160008152602001604051806040016040528060098152602001681b5a5b9d195917d85d60ba1b8152508152508152602001604051806101000160405280600381526020016000815260200160126013811115610221576102216105c8565b8152600160208201526040016000815260200160028152602001600081526020016040518060400160405280600581526020016437bbb732b960d91b81525081525081526020016040518061010001604052806004815260200160008152602001601380811115610294576102946105c8565b81526001602082015260400160008152602001600381526020016000815260200160405180604001604052806009815260200168746f6b656e5f75726960b81b815250815250815250905060005b60048110156103c157600f8282600481106102ff576102ff6105de565b6020908102919091015182546001818101855560009485529383902082516008909202019081559181015182840155604081015160028301805492949192909160ff1990911690836013811115610358576103586105c8565b021790555060608201516003820155608082015160048201805460ff191660018381811115610389576103896105c8565b021790555060a0820151600582015560c0820151600682015560e082015160078201906103b6908261050a565b5050506001016102e2565b505050506105f4565b600680546001600160a01b038381166001600160a01b0319831681179093556040519116919082907f8be0079c531659141344cd1fd0a4f28419497f9722a3daafe3b4186f6b6457e090600090a35050565b80516001600160a01b038116811461043357600080fd5b919050565b6000806040838503121561044b57600080fd5b6104548361041c565b91506104626020840161041c565b90509250929050565b634e487b7160e01b600052604160045260246000fd5b600181811c9082168061049557607f821691505b6020821081036104b557634e487b7160e01b600052602260045260246000fd5b50919050565b601f82111561050557806000526020600020601f840160051c810160208510156104e25750805b601f840160051c820191505b8181101561050257600081556001016104ee565b50505b505050565b81516001600160401b038111156105235761052361046b565b610537816105318454610481565b846104bb565b6020601f82116001811461056b57600083156105535750848201515b600019600385901b1c1916600184901b178455610502565b600084815260208120601f198516915b8281101561059b578785015182556020948501946001909201910161057b565b50848210156105b95786840151600019600387901b60f8161c191681555b50505050600190811b01905550565b634e487b7160e01b600052602160045260246000fd5b634e487b7160e01b600052603260045260246000fd5b608051612ddf61061d60003960008181610ae70152818161127a01526119920152612ddf6000f3fe6080604052600436106102675760003560e01c80638da5cb5b11610144578063cd56d2a3116100b6578063f2fde38b1161007a578063f2fde38b146107b7578063f449b34a146107d7578063f44c3bf7146107f7578063f4a586d01461080c578063f8895cc81461082c578063fc361d121461084e57600080fd5b8063cd56d2a314610707578063e19267ed14610727578063e985e9c514610747578063e9ac044014610767578063f137e01a1461079757600080fd5b8063a75573b811610108578063a75573b814610619578063b45a3c0e14610664578063b510391f14610694578063b88d4fde146106a7578063c41a360a146106c7578063c87b56dd146106e757600080fd5b80638da5cb5b146105865780638f742d16146105a457806395d89b41146105c457806399e39025146105d9578063a22cb465146105f957600080fd5b8063538cae22116101dd57806370a08231116101a157806370a08231146104de578063715018a6146104fe57806376b90b94146105135780637fd39247146105405780638146725d1461056057806386476dc61461057357600080fd5b8063538cae221461041857806358e23bac146104385780635cf5944d1461047e5780636352211e1461049e5780636b88ddaf146104be57600080fd5b806314ff5ea31161022f57806314ff5ea31461033d578063162094c41461036b57806323b872dd1461038b57806342842e0e146103ab57806346b8c14d146103cb5780634decc687146103f857600080fd5b806301ffc9a71461026c57806306fdde03146102a1578063081812fc146102c3578063095ea7b3146102fb5780630a3cc9891461031d575b600080fd5b34801561027857600080fd5b5061028c6102873660046122d9565b61086e565b60405190151581526020015b60405180910390f35b3480156102ad57600080fd5b506102b6610899565b604051610298919061234d565b3480156102cf57600080fd5b506102e36102de366004612360565b61092b565b6040516001600160a01b039091168152602001610298565b34801561030757600080fd5b5061031b610316366004612395565b610954565b005b34801561032957600080fd5b5061031b6103383660046123cf565b610963565b34801561034957600080fd5b5061035d610358366004612360565b610a47565b604051908152602001610298565b34801561037757600080fd5b5061031b61038636600461249c565b610a77565b34801561039757600080fd5b5061031b6103a63660046124f6565b610ab9565b3480156103b757600080fd5b5061031b6103c63660046124f6565b610b4e565b3480156103d757600080fd5b506103eb6103e6366004612533565b610b69565b6040516102989190612593565b34801561040457600080fd5b506103eb610413366004612360565b610c05565b34801561042457600080fd5b5061031b610433366004612658565b610c67565b34801561044457600080fd5b5060408051808201909152601a81527f697066733a2f2f646f636b686976652d736368656d612d75726900000000000060208201526102b6565b34801561048a57600080fd5b5061035d610499366004612694565b610caf565b3480156104aa57600080fd5b506102e36104b9366004612360565b610ce2565b3480156104ca57600080fd5b5061031b6104d93660046123cf565b610ced565b3480156104ea57600080fd5b5061035d6104f93660046126b6565b610df4565b34801561050a57600080fd5b5061031b610e3c565b34801561051f57600080fd5b5061035d61052e366004612360565b6000908152600a602052604090205490565b34801561054c57600080fd5b5061031b61055b3660046126d1565b610e50565b6103eb61056e36600461273c565b610eb2565b61035d610581366004612795565b610fcd565b34801561059257600080fd5b506006546001600160a01b03166102e3565b3480156105b057600080fd5b506102b66105bf366004612360565b61104e565b3480156105d057600080fd5b506102b661107f565b3480156105e557600080fd5b5061031b6105f43660046127f5565b61108e565b34801561060557600080fd5b5061031b610614366004612821565b6110ec565b34801561062557600080fd5b5061063961063436600461284b565b6110f7565b604080518251815260208084015190820152918101516001600160a01b031690820152606001610298565b34801561067057600080fd5b5061028c61067f366004612360565b6000908152600c602052604090205460ff1690565b61035d6106a236600461287f565b61119d565b3480156106b357600080fd5b5061031b6106c23660046128f1565b61124c565b3480156106d357600080fd5b506102e36106e2366004612360565b6112e2565b3480156106f357600080fd5b506102b6610702366004612360565b611303565b34801561071357600080fd5b5061031b610722366004612958565b6113e1565b34801561073357600080fd5b5061031b610742366004612395565b611473565b34801561075357600080fd5b5061028c61076236600461299a565b6114f3565b34801561077357600080fd5b5061028c610782366004612360565b6000908152600b602052604090205460ff1690565b3480156107a357600080fd5b5061031b6107b2366004612694565b611521565b3480156107c357600080fd5b5061031b6107d23660046126b6565b61156a565b3480156107e357600080fd5b5061035d6107f2366004612360565b6115a8565b34801561080357600080fd5b506102b66115c9565b34801561081857600080fd5b5061031b610827366004612958565b6115d8565b34801561083857600080fd5b50610841611662565b60405161029891906129ee565b34801561085a57600080fd5b5061031b610869366004612ad7565b611818565b60006001600160e01b03198216631a2b25a160e11b14806108935750610893826118ac565b92915050565b6060600080546108a890612b46565b80601f01602080910402602001604051908101604052809291908181526020018280546108d490612b46565b80156109215780601f106108f657610100808354040283529160200191610921565b820191906000526020600020905b81548152906001019060200180831161090457829003601f168201915b5050505050905090565b60006109368261191a565b506000828152600460205260409020546001600160a01b0316610893565b61095f828233611953565b5050565b8161096d81610ce2565b6001600160a01b0316336001600160a01b0316146109a557604051634a0bfec160e01b81523360048201526024015b60405180910390fd5b6000838152600c602052604090205460ff1680151583151514610a41576000848152600c60205260409020805460ff19168415801591909117909155610a155760405184907f032bc66be43dbccb7487781d168eb7bda224628a3b2c3388bdf69b532a3a161190600090a2610a41565b60405184907ff27b6ce5b2f5e68ddb2fd95a8a909d4ecf1daaac270935fff052feacb24f184290600090a25b50505050565b600081815260096020526040812080548290610a6557610a65612b80565b90600052602060002001549050919050565b610a8082611960565b610a9c5760405162461bcd60e51b815260040161099c90612b96565b6000828152600d60205260409020610ab48282612c05565b505050565b6040516311b590b760e21b81526001600160a01b0384811660048301528381166024830152604482018390527f000000000000000000000000000000000000000000000000000000000000000016906346d642dc90606401600060405180830381600087803b158015610b2b57600080fd5b505af1158015610b3f573d6000803e3d6000fd5b50505050610ab48383836119bf565b610ab48383836040518060200160405280600081525061124c565b60408051600380825260808201909252606091602082018380368337019050509050816000015181600081518110610ba357610ba3612b80565b602002602001018181525050816020015181600181518110610bc757610bc7612b80565b60200260200101818152505081604001516001600160a01b031681600281518110610bf457610bf4612b80565b602002602001018181525050919050565b600081815260096020908152604091829020805483518184028101840190945280845260609392830182828015610c5b57602002820191906000526020600020905b815481526020019060010190808311610c47575b50505050509050919050565b81610c7181611960565b610c9057604051634a0bfec160e01b815233600482015260240161099c565b60008381526009602090815260409091208351610a4192850190612263565b6000828152600960205260408120805483908110610ccf57610ccf612b80565b9060005260206000200154905092915050565b60006108938261191a565b81610cf781610ce2565b6001600160a01b0316336001600160a01b031614610d2a57604051634a0bfec160e01b815233600482015260240161099c565b6000838152600b602052604090205460ff1680151583151514610a41578215610d92576000848152600b6020526040808220805460ff191660011790555185917f4d69b51fee53c28bd8b61fe008151577ca65160b5248f6225e74d64fd4cf732891a2610a41565b6000848152600a60205260408120805491610dac83612cd9565b90915550506000848152600b6020526040808220805460ff191690555185917fd7ea826caa575891b88b771d03fe1da3092d4a65c5adeaccc99be085978cebe891a250505050565b60006001600160a01b038216610e20576040516322718ad960e21b81526000600482015260240161099c565b506001600160a01b031660009081526003602052604090205490565b610e44611a44565b610e4e6000611a71565b565b610e5982611960565b610e755760405162461bcd60e51b815260040161099c90612b96565b600082815260096020526040902080546001600160a01b03831691906002908110610ea257610ea2612b80565b6000918252602090912001555050565b6060610ec5826602c2ad68fd9000612cf2565b3414610f0b5760405162461bcd60e51b8152602060048201526015602482015274496e636f7272656374206d696e74696e672066656560581b604482015260640161099c565b816001600160401b03811115610f2357610f236123fb565b604051908082528060200260200182016040528015610f4c578160200160208202803683370190505b50905060005b82811015610f8a57610f65868686611ac3565b828281518110610f7757610f77612b80565b6020908102919091010152600101610f52565b506006546040516001600160a01b03909116903480156108fc02916000818181858888f19350505050158015610fc4573d6000803e3d6000fd5b50949350505050565b6000610fda85848461119d565b90506001600160a01b03841615611046576000610ff8858585611ac3565b60408051848152602081018390526001600160a01b0388168183015290519192507ffc9d75ff6dc44f72ac082fee91fc5a1687c50bed68581c839e28c70954901c78919081900360600190a1505b949350505050565b606061105982611af1565b6040516020016110699190612d09565b6040516020818303038152906040529050919050565b6060600180546108a890612b46565b8261109881611960565b6110b757604051634a0bfec160e01b815233600482015260240161099c565b60008481526009602052604090208054839190859081106110da576110da612b80565b60009182526020909120015550505050565b61095f338383611b83565b6111246040518060600160405280600081526020016000815260200160006001600160a01b031681525090565b8160008151811061113757611137612b80565b60200260200101518160000181815250508160018151811061115b5761115b612b80565b60200260200101518160200181815250508160028151811061117f5761117f612b80565b60209081029190910101516001600160a01b03166040820152919050565b6000346602c2ad68fd9000146111ed5760405162461bcd60e51b8152602060048201526015602482015274496e636f7272656374206d696e74696e672066656560581b604482015260640161099c565b6111f8848484611ac3565b905061120c6006546001600160a01b031690565b6001600160a01b03166108fc349081150290604051600060405180830381858888f19350505050158015611244573d6000803e3d6000fd5b509392505050565b6040516311b590b760e21b81526001600160a01b0385811660048301528481166024830152604482018490527f000000000000000000000000000000000000000000000000000000000000000016906346d642dc90606401600060405180830381600087803b1580156112be57600080fd5b505af11580156112d2573d6000803e3d6000fd5b50505050610a4184848484611c22565b600081815260096020526040812080546002908110610a6557610a65612b80565b6000818152600d602052604081208054606092919061132190612b46565b80601f016020809104026020016040519081016040528092919081815260200182805461134d90612b46565b801561139a5780601f1061136f5761010080835404028352916020019161139a565b820191906000526020600020905b81548152906001019060200180831161137d57829003601f168201915b505050505090506000815111156113b15792915050565b6113ba83611af1565b6040516020016113ca9190612d09565b604051602081830303815290604052915050919050565b81816113fc826000908152600b602052604090205460ff1690565b611422576040516307045dd960e01b81523060048201526024810183905260440161099c565b6000828152600a6020526040902054811461146057604051631081e84160e21b8152306004820152602481018390526044810182905260640161099c565b61146b868686610ab9565b505050505050565b61147b611c39565b61149a57604051634a0bfec160e01b815233600482015260240161099c565b6001600160a01b03821660008181526008602052604090819020839055517faffd0d436417235189c464f3463b54b1009e5aebc9e8e089f1f176e2231f2f92906114e79084815260200190565b60405180910390a25050565b6001600160a01b03918216600090815260056020908152604080832093909416825291909152205460ff1690565b61152a82611960565b6115465760405162461bcd60e51b815260040161099c90612b96565b600082815260096020526040902080548291906001908110610ea257610ea2612b80565b611572611a44565b6001600160a01b03811661159c57604051631e4fbdf760e01b81526000600482015260240161099c565b6115a581611a71565b50565b600081815260096020526040812080546001908110610a6557610a65612b80565b6060600780546108a890612b46565b81816115f3826000908152600b602052604090205460ff1690565b611619576040516307045dd960e01b81523060048201526024810183905260440161099c565b6000828152600a6020526040902054811461165757604051631081e84160e21b8152306004820152602481018390526044810182905260640161099c565b61146b868686610b4e565b604080518082019091526000815260606020820152604051806040016040528060018152602001600f805480602002602001604051908101604052809291908181526020016000905b8282101561180d57838290600052602060002090600802016040518061010001604052908160008201548152602001600182015481526020016002820160009054906101000a900460ff166013811115611707576117076129c4565b6013811115611718576117186129c4565b815260038201546020820152600482015460409091019060ff166001811115611743576117436129c4565b6001811115611754576117546129c4565b8152602001600582015481526020016006820154815260200160078201805461177c90612b46565b80601f01602080910402602001604051908101604052809291908181526020018280546117a890612b46565b80156117f55780601f106117ca576101008083540402835291602001916117f5565b820191906000526020600020905b8154815290600101906020018083116117d857829003601f168201915b505050505081525050815260200190600101906116ab565b505050915250919050565b8281611833826000908152600b602052604090205460ff1690565b611859576040516307045dd960e01b81523060048201526024810183905260440161099c565b6000828152600a6020526040902054811461189757604051631081e84160e21b8152306004820152602481018390526044810182905260640161099c565b6118a38787878761124c565b50505050505050565b60006001600160e01b0319821663075ad2d560e51b14806118dd57506001600160e01b03198216635a2d1e0760e11b145b806118f057506001600160e01b03198216155b8061190b57506001600160e01b0319821663f44c3bf760e01b145b80610893575061089382611c66565b6000818152600260205260408120546001600160a01b03168061089357604051637e27328960e01b81526004810184905260240161099c565b610ab48383836001611cb6565b60006119746006546001600160a01b031690565b6001600160a01b0316336001600160a01b03161480610893575050507f00000000000000000000000000000000000000000000000000000000000000006001600160a01b0316331490565b6001600160a01b0382166119e957604051633250574960e11b81526000600482015260240161099c565b60006119f6838333611dbc565b9050836001600160a01b0316816001600160a01b031614610a41576040516364283d7b60e01b81526001600160a01b038086166004830152602482018490528216604482015260640161099c565b6006546001600160a01b03163314610e4e5760405163118cdaa760e01b815233600482015260240161099c565b600680546001600160a01b038381166001600160a01b0319831681179093556040519116919082907f8be0079c531659141344cd1fd0a4f28419497f9722a3daafe3b4186f6b6457e090600090a35050565b600e805460009182919082611ad783612cd9565b919050559050611ae78582611eb5565b6110468186611ecf565b60606000611afe83611f1f565b60010190506000816001600160401b03811115611b1d57611b1d6123fb565b6040519080825280601f01601f191660200182016040528015611b47576020820181803683370190505b5090508181016020015b600019016f181899199a1a9b1b9c1cb0b131b232b360811b600a86061a8153600a8504945084611b5157509392505050565b6001600160a01b038216611bb557604051630b61174360e31b81526001600160a01b038316600482015260240161099c565b6001600160a01b03838116600081815260056020908152604080832094871680845294825291829020805460ff191686151590811790915591519182527f17307eab39ab6107e8899845ad3d59bd9653f200f220920489ca2b5937696c31910160405180910390a3505050565b611c2d848484610ab9565b610a4184848484611ff7565b6000611c4d6006546001600160a01b031690565b6001600160a01b0316336001600160a01b031614905090565b60006001600160e01b031982166380ac58cd60e01b1480611c9757506001600160e01b03198216635b5e139f60e01b145b8061089357506301ffc9a760e01b6001600160e01b0319831614610893565b8080611cca57506001600160a01b03821615155b15611d8c576000611cda8461191a565b90506001600160a01b03831615801590611d065750826001600160a01b0316816001600160a01b031614155b8015611d195750611d1781846114f3565b155b15611d425760405163a9fbf51f60e01b81526001600160a01b038416600482015260240161099c565b8115611d8a5783856001600160a01b0316826001600160a01b03167f8c5be1e5ebec7d5bd14f71427d1e84f3dd0314c0f7b2291e5b200ac8c7c3b92560405160405180910390a45b505b5050600090815260046020526040902080546001600160a01b0319166001600160a01b0392909216919091179055565b6000828152600260205260408120546001600160a01b0390811690831615611de957611de9818486612120565b6001600160a01b03811615611e2757611e06600085600080611cb6565b6001600160a01b038116600090815260036020526040902080546000190190555b6001600160a01b03851615611e56576001600160a01b0385166000908152600360205260409020805460010190555b60008481526002602052604080822080546001600160a01b0319166001600160a01b0389811691821790925591518793918516917fddf252ad1be2c89b69c2b068fc378daa952ba7f163c4a11628f55a4df523b3ef91a4949350505050565b61095f828260405180602001604052806000815250612184565b604080516060810182528381524260208201526001600160a01b03831691810191909152611efc81610b69565b60008481526009602090815260409091208251610a419391929190910190612263565b60008072184f03e93ff9f4daa797ed6e38ed64bf6a1f0160401b8310611f5e5772184f03e93ff9f4daa797ed6e38ed64bf6a1f0160401b830492506040015b6d04ee2d6d415b85acef81000000008310611f8a576d04ee2d6d415b85acef8100000000830492506020015b662386f26fc100008310611fa857662386f26fc10000830492506010015b6305f5e1008310611fc0576305f5e100830492506008015b6127108310611fd457612710830492506004015b60648310611fe6576064830492506002015b600a83106108935760010192915050565b6001600160a01b0383163b15610a4157604051630a85bd0160e11b81526001600160a01b0384169063150b7a0290612039903390889087908790600401612d59565b6020604051808303816000875af1925050508015612074575060408051601f3d908101601f1916820190925261207191810190612d8c565b60015b6120dd573d8080156120a2576040519150601f19603f3d011682016040523d82523d6000602084013e6120a7565b606091505b5080516000036120d557604051633250574960e11b81526001600160a01b038516600482015260240161099c565b805181602001fd5b6001600160e01b03198116630a85bd0160e11b1461211957604051633250574960e11b81526001600160a01b038516600482015260240161099c565b5050505050565b61212b83838361219b565b610ab4576001600160a01b03831661215957604051637e27328960e01b81526004810182905260240161099c565b60405163177e802f60e01b81526001600160a01b03831660048201526024810182905260440161099c565b61218e83836121fe565b610ab46000848484611ff7565b60006001600160a01b038316158015906110465750826001600160a01b0316846001600160a01b031614806121d557506121d584846114f3565b806110465750506000908152600460205260409020546001600160a01b03908116911614919050565b6001600160a01b03821661222857604051633250574960e11b81526000600482015260240161099c565b600061223683836000611dbc565b90506001600160a01b03811615610ab4576040516339e3563760e11b81526000600482015260240161099c565b82805482825590600052602060002090810192821561229e579160200282015b8281111561229e578251825591602001919060010190612283565b506122aa9291506122ae565b5090565b5b808211156122aa57600081556001016122af565b6001600160e01b0319811681146115a557600080fd5b6000602082840312156122eb57600080fd5b81356122f6816122c3565b9392505050565b60005b83811015612318578181015183820152602001612300565b50506000910152565b600081518084526123398160208601602086016122fd565b601f01601f19169290920160200192915050565b6020815260006122f66020830184612321565b60006020828403121561237257600080fd5b5035919050565b80356001600160a01b038116811461239057600080fd5b919050565b600080604083850312156123a857600080fd5b6123b183612379565b946020939093013593505050565b8035801515811461239057600080fd5b600080604083850312156123e257600080fd5b823591506123f2602084016123bf565b90509250929050565b634e487b7160e01b600052604160045260246000fd5b604051601f8201601f191681016001600160401b0381118282101715612439576124396123fb565b604052919050565b6000806001600160401b0384111561245b5761245b6123fb565b50601f8301601f191660200161247081612411565b91505082815283838301111561248557600080fd5b828260208301376000602084830101529392505050565b600080604083850312156124af57600080fd5b8235915060208301356001600160401b038111156124cc57600080fd5b8301601f810185136124dd57600080fd5b6124ec85823560208401612441565b9150509250929050565b60008060006060848603121561250b57600080fd5b61251484612379565b925061252260208501612379565b929592945050506040919091013590565b6000606082840312801561254657600080fd5b50604051606081016001600160401b0381118282101715612569576125696123fb565b60409081528335825260208085013590830152612587908401612379565b60408201529392505050565b602080825282518282018190526000918401906040840190835b818110156125cb5783518352602093840193909201916001016125ad565b509095945050505050565b600082601f8301126125e757600080fd5b81356001600160401b03811115612600576126006123fb565b8060051b61261060208201612411565b9182526020818501810192908101908684111561262c57600080fd5b6020860192505b8383101561264e578235825260209283019290910190612633565b9695505050505050565b6000806040838503121561266b57600080fd5b8235915060208301356001600160401b0381111561268857600080fd5b6124ec858286016125d6565b600080604083850312156126a757600080fd5b50508035926020909101359150565b6000602082840312156126c857600080fd5b6122f682612379565b600080604083850312156126e457600080fd5b823591506123f260208401612379565b60008083601f84011261270657600080fd5b5081356001600160401b0381111561271d57600080fd5b60208301915083602082850101111561273557600080fd5b9250929050565b6000806000806060858703121561275257600080fd5b61275b85612379565b935060208501356001600160401b0381111561277657600080fd5b612782878288016126f4565b9598909750949560400135949350505050565b600080600080606085870312156127ab57600080fd5b6127b485612379565b93506127c260208601612379565b925060408501356001600160401b038111156127dd57600080fd5b6127e9878288016126f4565b95989497509550505050565b60008060006060848603121561280a57600080fd5b505081359360208301359350604090920135919050565b6000806040838503121561283457600080fd5b61283d83612379565b91506123f2602084016123bf565b60006020828403121561285d57600080fd5b81356001600160401b0381111561287357600080fd5b611046848285016125d6565b60008060006040848603121561289457600080fd5b61289d84612379565b925060208401356001600160401b038111156128b857600080fd5b6128c4868287016126f4565b9497909650939450505050565b600082601f8301126128e257600080fd5b6122f683833560208501612441565b6000806000806080858703121561290757600080fd5b61291085612379565b935061291e60208601612379565b92506040850135915060608501356001600160401b0381111561294057600080fd5b61294c878288016128d1565b91505092959194509250565b6000806000806080858703121561296e57600080fd5b61297785612379565b935061298560208601612379565b93969395505050506040820135916060013590565b600080604083850312156129ad57600080fd5b6129b683612379565b91506123f260208401612379565b634e487b7160e01b600052602160045260246000fd5b600281106129ea576129ea6129c4565b9052565b6020815260006060820183516020840152602084015160408085015281815180845260808601915060808160051b870101935060208301925060005b81811015612acb57607f1987860301835283518051865260208101516020870152604081015160148110612a6057612a606129c4565b80604088015250606081015160608701526080810151612a8360808801826129da565b5060a081015160a087015260c081015160c087015260e0810151905061010060e0870152612ab5610100870182612321565b9550506020938401939290920191600101612a2a565b50929695505050505050565b600080600080600060a08688031215612aef57600080fd5b612af886612379565b9450612b0660208701612379565b93506040860135925060608601356001600160401b03811115612b2857600080fd5b612b34888289016128d1565b95989497509295608001359392505050565b600181811c90821680612b5a57607f821691505b602082108103612b7a57634e487b7160e01b600052602260045260246000fd5b50919050565b634e487b7160e01b600052603260045260246000fd5b6020808252600e908201526d139bdd08185d5d1a1bdc9a5e995960921b604082015260600190565b601f821115610ab457806000526020600020601f840160051c81016020851015612be55750805b601f840160051c820191505b818110156121195760008155600101612bf1565b81516001600160401b03811115612c1e57612c1e6123fb565b612c3281612c2c8454612b46565b84612bbe565b6020601f821160018114612c665760008315612c4e5750848201515b600019600385901b1c1916600184901b178455612119565b600084815260208120601f198516915b82811015612c965787850151825560209485019460019092019101612c76565b5084821015612cb45786840151600019600387901b60f8161c191681555b50505050600190811b01905550565b634e487b7160e01b600052601160045260246000fd5b600060018201612ceb57612ceb612cc3565b5060010190565b808202811582820484141761089357610893612cc3565b7f68747470733a2f2f796f75722d646f6d61696e2e636f6d2f6e66742d696d6167815261652f60f01b602082015260008251612d4c8160228501602087016122fd565b9190910160220192915050565b6001600160a01b038581168252841660208201526040810183905260806060820181905260009061264e90830184612321565b600060208284031215612d9e57600080fd5b81516122f6816122c356fea2646970667358221220ee620739b1a4c5b5e11d83019b34ee09492fd2cb9730a3e01e78dbeb38a5e10364736f6c634300081a0033","linkReferences":{}},"methodIdentifiers":{"approve(address,uint256)":"095ea7b3","balanceOf(address)":"70a08231","frozen(uint256)":"e9ac0440","getApproved(uint256)":"081812fc","getFreezeNonce(uint256)":"76b90b94","getMintedAt(uint256)":"f449b34a","getOwner(uint256)":"c41a360a","getScopeName()":"f44c3bf7","getTokenId(uint256)":"14ff5ea3","imageURI(uint256)":"8f742d16","isApprovedForAll(address,address)":"e985e9c5","loadPackedMetadata(uint256)":"4decc687","loadPackedMetadataSlot(uint256,uint256)":"5cf5944d","locked(uint256)":"b45a3c0e","mint(address,bytes)":"b510391f","mintBatch(address,bytes,uint256)":"8146725d","mintWithReferral(address,address,bytes)":"86476dc6","name()":"06fdde03","owner()":"8da5cb5b","ownerOf(uint256)":"6352211e","packMetadata((uint256,uint256,address))":"46b8c14d","renounceOwnership()":"715018a6","safeTransferFrom(address,address,uint256)":"42842e0e","safeTransferFrom(address,address,uint256,bytes)":"b88d4fde","safeTransferFromWithFreezeNonce(address,address,uint256,bytes,uint256)":"fc361d12","safeTransferFromWithFreezeNonce(address,address,uint256,uint256)":"f4a586d0","schema()":"f8895cc8","schemaURI()":"58e23bac","setApprovalForAll(address,bool)":"a22cb465","setFrozen(uint256,bool)":"6b88ddaf","setLocked(uint256,bool)":"0a3cc989","setMintedAt(uint256,uint256)":"f137e01a","setOwner(uint256,address)":"7fd39247","setPermissions(address,uint256)":"e19267ed","setTokenURI(uint256,string)":"162094c4","storePackedMetadata(uint256,uint256[])":"538cae22","storePackedMetadataSlot(uint256,uint256,uint256)":"99e39025","supportsInterface(bytes4)":"01ffc9a7","symbol()":"95d89b41","tokenURI(uint256)":"c87b56dd","transferFrom(address,address,uint256)":"23b872dd","transferFromWithFreezeNonce(address,address,uint256,uint256)":"cd56d2a3","transferOwnership(address)":"f2fde38b","unpackMetadata(uint256[])":"a75573b8"},"id":20}