{"abi":[{"type":"constructor","inputs":[{"name":"_manager","type":"address","internalType":"address"},{"name":"_owner","type":"address","internalType":"address"}],"stateMutability":"nonpayable"},{"type":"function","name":"approve","inputs":[{"name":"to","type":"address","internalType":"address"},{"name":"tokenId","type":"uint256","internalType":"uint256"}],"outputs":[],"stateMutability":"nonpayable"},{"type":"function","name":"balanceOf","inputs":[{"name":"owner","type":"address","internalType":"address"}],"outputs":[{"name":"","type":"uint256","internalType":"uint256"}],"stateMutability":"view"},{"type":"function","name":"frozen","inputs":[{"name":"tokenId","type":"uint256","internalType":"uint256"}],"outputs":[{"name":"","type":"bool","internalType":"bool"}],"stateMutability":"view"},{"type":"function","name":"getApproved","inputs":[{"name":"tokenId","type":"uint256","internalType":"uint256"}],"outputs":[{"name":"","type":"address","internalType":"address"}],"stateMutability":"view"},{"type":"function","name":"getFreezeNonce","inputs":[{"name":"tokenId","type":"uint256","internalType":"uint256"}],"outputs":[{"name":"nonce","type":"uint256","internalType":"uint256"}],"stateMutability":"view"},{"type":"function","name":"getScopeName","inputs":[],"outputs":[{"name":"","type":"string","internalType":"string"}],"stateMutability":"view"},{"type":"function","name":"imageURI","inputs":[{"name":"tokenId","type":"uint256","internalType":"uint256"}],"outputs":[{"name":"","type":"string","internalType":"string"}],"stateMutability":"pure"},{"type":"function","name":"isApprovedForAll","inputs":[{"name":"owner","type":"address","internalType":"address"},{"name":"operator","type":"address","internalType":"address"}],"outputs":[{"name":"","type":"bool","internalType":"bool"}],"stateMutability":"view"},{"type":"function","name":"loadMetadata","inputs":[{"name":"tokenId","type":"uint256","internalType":"uint256"}],"outputs":[{"name":"data","type":"tuple","internalType":"struct UserNFTContract.Metadata","components":[{"name":"nfts_held_count","type":"uint256","internalType":"uint256"},{"name":"minted_nfts_count","type":"uint256","internalType":"uint256"},{"name":"token_id","type":"uint256","internalType":"uint256"},{"name":"minted_at","type":"uint256","internalType":"uint256"},{"name":"wallet_address","type":"address","internalType":"address"},{"name":"owner","type":"address","internalType":"address"}]}],"stateMutability":"view"},{"type":"function","name":"loadMintedat","inputs":[{"name":"tokenId","type":"uint256","internalType":"uint256"}],"outputs":[{"name":"","type":"uint256","internalType":"uint256"}],"stateMutability":"view"},{"type":"function","name":"loadMintednftscount","inputs":[{"name":"tokenId","type":"uint256","internalType":"uint256"}],"outputs":[{"name":"","type":"uint256","internalType":"uint256"}],"stateMutability":"view"},{"type":"function","name":"loadNftsheldcount","inputs":[{"name":"tokenId","type":"uint256","internalType":"uint256"}],"outputs":[{"name":"","type":"uint256","internalType":"uint256"}],"stateMutability":"view"},{"type":"function","name":"loadOwner","inputs":[{"name":"tokenId","type":"uint256","internalType":"uint256"}],"outputs":[{"name":"","type":"address","internalType":"address"}],"stateMutability":"view"},{"type":"function","name":"loadPackedMetadata","inputs":[{"name":"tokenId","type":"uint256","internalType":"uint256"}],"outputs":[{"name":"","type":"uint256[]","internalType":"uint256[]"}],"stateMutability":"view"},{"type":"function","name":"loadPackedMetadataSlot","inputs":[{"name":"tokenId","type":"uint256","internalType":"uint256"},{"name":"slot","type":"uint256","internalType":"uint256"}],"outputs":[{"name":"","type":"uint256","internalType":"uint256"}],"stateMutability":"view"},{"type":"function","name":"loadTokenid","inputs":[{"name":"tokenId","type":"uint256","internalType":"uint256"}],"outputs":[{"name":"","type":"uint256","internalType":"uint256"}],"stateMutability":"view"},{"type":"function","name":"loadTokenuri","inputs":[{"name":"tokenId","type":"uint256","internalType":"uint256"}],"outputs":[{"name":"","type":"string","internalType":"string"}],"stateMutability":"view"},{"type":"function","name":"loadWalletaddress","inputs":[{"name":"tokenId","type":"uint256","internalType":"uint256"}],"outputs":[{"name":"","type":"address","internalType":"address"}],"stateMutability":"view"},{"type":"function","name":"locked","inputs":[{"name":"tokenId","type":"uint256","internalType":"uint256"}],"outputs":[{"name":"","type":"bool","internalType":"bool"}],"stateMutability":"view"},{"type":"function","name":"mint","inputs":[{"name":"to","type":"address","internalType":"address"},{"name":"data","type":"bytes","internalType":"bytes"}],"outputs":[{"name":"tokenId","type":"uint256","internalType":"uint256"}],"stateMutability":"payable"},{"type":"function","name":"mintBatch","inputs":[{"name":"to","type":"address","internalType":"address"},{"name":"data","type":"bytes","internalType":"bytes"},{"name":"quantity","type":"uint256","internalType":"uint256"}],"outputs":[{"name":"tokenIds","type":"uint256[]","internalType":"uint256[]"}],"stateMutability":"payable"},{"type":"function","name":"name","inputs":[],"outputs":[{"name":"","type":"string","internalType":"string"}],"stateMutability":"view"},{"type":"function","name":"owner","inputs":[],"outputs":[{"name":"","type":"address","internalType":"address"}],"stateMutability":"view"},{"type":"function","name":"ownerOf","inputs":[{"name":"tokenId","type":"uint256","internalType":"uint256"}],"outputs":[{"name":"","type":"address","internalType":"address"}],"stateMutability":"view"},{"type":"function","name":"packMetadata","inputs":[{"name":"data","type":"tuple","internalType":"struct UserNFTContract.Metadata","components":[{"name":"nfts_held_count","type":"uint256","internalType":"uint256"},{"name":"minted_nfts_count","type":"uint256","internalType":"uint256"},{"name":"token_id","type":"uint256","internalType":"uint256"},{"name":"minted_at","type":"uint256","internalType":"uint256"},{"name":"wallet_address","type":"address","internalType":"address"},{"name":"owner","type":"address","internalType":"address"}]}],"outputs":[{"name":"slots","type":"uint256[]","internalType":"uint256[]"}],"stateMutability":"pure"},{"type":"function","name":"renounceOwnership","inputs":[],"outputs":[],"stateMutability":"nonpayable"},{"type":"function","name":"safeTransferFrom","inputs":[{"name":"from","type":"address","internalType":"address"},{"name":"to","type":"address","internalType":"address"},{"name":"tokenId","type":"uint256","internalType":"uint256"}],"outputs":[],"stateMutability":"nonpayable"},{"type":"function","name":"safeTransferFrom","inputs":[{"name":"from","type":"address","internalType":"address"},{"name":"to","type":"address","internalType":"address"},{"name":"tokenId","type":"uint256","internalType":"uint256"},{"name":"data","type":"bytes","internalType":"bytes"}],"outputs":[],"stateMutability":"nonpayable"},{"type":"function","name":"safeTransferFromWithFreezeNonce","inputs":[{"name":"from","type":"address","internalType":"address"},{"name":"to","type":"address","internalType":"address"},{"name":"tokenId","type":"uint256","internalType":"uint256"},{"name":"nonce","type":"uint256","internalType":"uint256"}],"outputs":[],"stateMutability":"nonpayable"},{"type":"function","name":"safeTransferFromWithFreezeNonce","inputs":[{"name":"from","type":"address","internalType":"address"},{"name":"to","type":"address","internalType":"address"},{"name":"tokenId","type":"uint256","internalType":"uint256"},{"name":"data","type":"bytes","internalType":"bytes"},{"name":"nonce","type":"uint256","internalType":"uint256"}],"outputs":[],"stateMutability":"nonpayable"},{"type":"function","name":"schema","inputs":[],"outputs":[{"name":"","type":"tuple","internalType":"struct IPatchworkMetadata.MetadataSchema","components":[{"name":"version","type":"uint256","internalType":"uint256"},{"name":"entries","type":"tuple[]","internalType":"struct IPatchworkMetadata.MetadataSchemaEntry[]","components":[{"name":"id","type":"uint256","internalType":"uint256"},{"name":"permissionId","type":"uint256","internalType":"uint256"},{"name":"fieldType","type":"uint8","internalType":"enum IPatchworkMetadata.FieldType"},{"name":"fieldCount","type":"uint256","internalType":"uint256"},{"name":"visibility","type":"uint8","internalType":"enum IPatchworkMetadata.FieldVisibility"},{"name":"slot","type":"uint256","internalType":"uint256"},{"name":"offset","type":"uint256","internalType":"uint256"},{"name":"key","type":"string","internalType":"string"}]}]}],"stateMutability":"pure"},{"type":"function","name":"schemaURI","inputs":[],"outputs":[{"name":"","type":"string","internalType":"string"}],"stateMutability":"pure"},{"type":"function","name":"setApprovalForAll","inputs":[{"name":"operator","type":"address","internalType":"address"},{"name":"approved","type":"bool","internalType":"bool"}],"outputs":[],"stateMutability":"nonpayable"},{"type":"function","name":"setFrozen","inputs":[{"name":"tokenId","type":"uint256","internalType":"uint256"},{"name":"frozen_","type":"bool","internalType":"bool"}],"outputs":[],"stateMutability":"nonpayable"},{"type":"function","name":"setLocked","inputs":[{"name":"tokenId","type":"uint256","internalType":"uint256"},{"name":"locked_","type":"bool","internalType":"bool"}],"outputs":[],"stateMutability":"nonpayable"},{"type":"function","name":"setPermissions","inputs":[{"name":"to","type":"address","internalType":"address"},{"name":"permissions","type":"uint256","internalType":"uint256"}],"outputs":[],"stateMutability":"nonpayable"},{"type":"function","name":"storeMetadata","inputs":[{"name":"tokenId","type":"uint256","internalType":"uint256"},{"name":"data","type":"tuple","internalType":"struct UserNFTContract.Metadata","components":[{"name":"nfts_held_count","type":"uint256","internalType":"uint256"},{"name":"minted_nfts_count","type":"uint256","internalType":"uint256"},{"name":"token_id","type":"uint256","internalType":"uint256"},{"name":"minted_at","type":"uint256","internalType":"uint256"},{"name":"wallet_address","type":"address","internalType":"address"},{"name":"owner","type":"address","internalType":"address"}]}],"outputs":[],"stateMutability":"nonpayable"},{"type":"function","name":"storeMintedat","inputs":[{"name":"tokenId","type":"uint256","internalType":"uint256"},{"name":"minted_at","type":"uint256","internalType":"uint256"}],"outputs":[],"stateMutability":"nonpayable"},{"type":"function","name":"storeMintednftscount","inputs":[{"name":"tokenId","type":"uint256","internalType":"uint256"},{"name":"minted_nfts_count","type":"uint256","internalType":"uint256"}],"outputs":[],"stateMutability":"nonpayable"},{"type":"function","name":"storeNftsheldcount","inputs":[{"name":"tokenId","type":"uint256","internalType":"uint256"},{"name":"nfts_held_count","type":"uint256","internalType":"uint256"}],"outputs":[],"stateMutability":"nonpayable"},{"type":"function","name":"storeOwner","inputs":[{"name":"tokenId","type":"uint256","internalType":"uint256"},{"name":"owner","type":"address","internalType":"address"}],"outputs":[],"stateMutability":"nonpayable"},{"type":"function","name":"storePackedMetadata","inputs":[{"name":"tokenId","type":"uint256","internalType":"uint256"},{"name":"data","type":"uint256[]","internalType":"uint256[]"}],"outputs":[],"stateMutability":"nonpayable"},{"type":"function","name":"storePackedMetadataSlot","inputs":[{"name":"tokenId","type":"uint256","internalType":"uint256"},{"name":"slot","type":"uint256","internalType":"uint256"},{"name":"data","type":"uint256","internalType":"uint256"}],"outputs":[],"stateMutability":"nonpayable"},{"type":"function","name":"storeTokenid","inputs":[{"name":"tokenId","type":"uint256","internalType":"uint256"},{"name":"token_id","type":"uint256","internalType":"uint256"}],"outputs":[],"stateMutability":"nonpayable"},{"type":"function","name":"storeTokenuri","inputs":[{"name":"tokenId","type":"uint256","internalType":"uint256"},{"name":"token_uri","type":"string","internalType":"string"}],"outputs":[],"stateMutability":"nonpayable"},{"type":"function","name":"storeWalletaddress","inputs":[{"name":"tokenId","type":"uint256","internalType":"uint256"},{"name":"wallet_address","type":"address","internalType":"address"}],"outputs":[],"stateMutability":"nonpayable"},{"type":"function","name":"supportsInterface","inputs":[{"name":"interfaceID","type":"bytes4","internalType":"bytes4"}],"outputs":[{"name":"","type":"bool","internalType":"bool"}],"stateMutability":"view"},{"type":"function","name":"symbol","inputs":[],"outputs":[{"name":"","type":"string","internalType":"string"}],"stateMutability":"view"},{"type":"function","name":"tokenURI","inputs":[{"name":"tokenId","type":"uint256","internalType":"uint256"}],"outputs":[{"name":"","type":"string","internalType":"string"}],"stateMutability":"view"},{"type":"function","name":"transferFrom","inputs":[{"name":"from","type":"address","internalType":"address"},{"name":"to","type":"address","internalType":"address"},{"name":"tokenId","type":"uint256","internalType":"uint256"}],"outputs":[],"stateMutability":"nonpayable"},{"type":"function","name":"transferFromWithFreezeNonce","inputs":[{"name":"from","type":"address","internalType":"address"},{"name":"to","type":"address","internalType":"address"},{"name":"tokenId","type":"uint256","internalType":"uint256"},{"name":"nonce","type":"uint256","internalType":"uint256"}],"outputs":[],"stateMutability":"nonpayable"},{"type":"function","name":"transferOwnership","inputs":[{"name":"newOwner","type":"address","internalType":"address"}],"outputs":[],"stateMutability":"nonpayable"},{"type":"function","name":"unpackMetadata","inputs":[{"name":"slots","type":"uint256[]","internalType":"uint256[]"}],"outputs":[{"name":"data","type":"tuple","internalType":"struct UserNFTContract.Metadata","components":[{"name":"nfts_held_count","type":"uint256","internalType":"uint256"},{"name":"minted_nfts_count","type":"uint256","internalType":"uint256"},{"name":"token_id","type":"uint256","internalType":"uint256"},{"name":"minted_at","type":"uint256","internalType":"uint256"},{"name":"wallet_address","type":"address","internalType":"address"},{"name":"owner","type":"address","internalType":"address"}]}],"stateMutability":"pure"},{"type":"event","name":"Approval","inputs":[{"name":"owner","type":"address","indexed":true,"internalType":"address"},{"name":"approved","type":"address","indexed":true,"internalType":"address"},{"name":"tokenId","type":"uint256","indexed":true,"internalType":"uint256"}],"anonymous":false},{"type":"event","name":"ApprovalForAll","inputs":[{"name":"owner","type":"address","indexed":true,"internalType":"address"},{"name":"operator","type":"address","indexed":true,"internalType":"address"},{"name":"approved","type":"bool","indexed":false,"internalType":"bool"}],"anonymous":false},{"type":"event","name":"BatchMetadataUpdate","inputs":[{"name":"_fromTokenId","type":"uint256","indexed":true,"internalType":"uint256"},{"name":"_toTokenId","type":"uint256","indexed":true,"internalType":"uint256"}],"anonymous":false},{"type":"event","name":"Frozen","inputs":[{"name":"tokenId","type":"uint256","indexed":true,"internalType":"uint256"}],"anonymous":false},{"type":"event","name":"Locked","inputs":[{"name":"tokenId","type":"uint256","indexed":true,"internalType":"uint256"}],"anonymous":false},{"type":"event","name":"MetadataUpdate","inputs":[{"name":"_tokenId","type":"uint256","indexed":true,"internalType":"uint256"}],"anonymous":false},{"type":"event","name":"OwnershipTransferred","inputs":[{"name":"previousOwner","type":"address","indexed":true,"internalType":"address"},{"name":"newOwner","type":"address","indexed":true,"internalType":"address"}],"anonymous":false},{"type":"event","name":"PermissionChange","inputs":[{"name":"to","type":"address","indexed":true,"internalType":"address"},{"name":"permissions","type":"uint256","indexed":false,"internalType":"uint256"}],"anonymous":false},{"type":"event","name":"SchemaChange","inputs":[{"name":"addr","type":"address","indexed":true,"internalType":"address"}],"anonymous":false},{"type":"event","name":"Thawed","inputs":[{"name":"tokenId","type":"uint256","indexed":true,"internalType":"uint256"}],"anonymous":false},{"type":"event","name":"Transfer","inputs":[{"name":"from","type":"address","indexed":true,"internalType":"address"},{"name":"to","type":"address","indexed":true,"internalType":"address"},{"name":"tokenId","type":"uint256","indexed":true,"internalType":"uint256"}],"anonymous":false},{"type":"event","name":"Unlocked","inputs":[{"name":"tokenId","type":"uint256","indexed":true,"internalType":"uint256"}],"anonymous":false},{"type":"error","name":"ERC721IncorrectOwner","inputs":[{"name":"sender","type":"address","internalType":"address"},{"name":"tokenId","type":"uint256","internalType":"uint256"},{"name":"owner","type":"address","internalType":"address"}]},{"type":"error","name":"ERC721InsufficientApproval","inputs":[{"name":"operator","type":"address","internalType":"address"},{"name":"tokenId","type":"uint256","internalType":"uint256"}]},{"type":"error","name":"ERC721InvalidApprover","inputs":[{"name":"approver","type":"address","internalType":"address"}]},{"type":"error","name":"ERC721InvalidOperator","inputs":[{"name":"operator","type":"address","internalType":"address"}]},{"type":"error","name":"ERC721InvalidOwner","inputs":[{"name":"owner","type":"address","internalType":"address"}]},{"type":"error","name":"ERC721InvalidReceiver","inputs":[{"name":"receiver","type":"address","internalType":"address"}]},{"type":"error","name":"ERC721InvalidSender","inputs":[{"name":"sender","type":"address","internalType":"address"}]},{"type":"error","name":"ERC721NonexistentToken","inputs":[{"name":"tokenId","type":"uint256","internalType":"uint256"}]},{"type":"error","name":"IncorrectNonce","inputs":[{"name":"addr","type":"address","internalType":"address"},{"name":"tokenId","type":"uint256","internalType":"uint256"},{"name":"nonce","type":"uint256","internalType":"uint256"}]},{"type":"error","name":"NotAuthorized","inputs":[{"name":"addr","type":"address","internalType":"address"}]},{"type":"error","name":"NotFrozen","inputs":[{"name":"addr","type":"address","internalType":"address"},{"name":"tokenId","type":"uint256","internalType":"uint256"}]},{"type":"error","name":"OwnableInvalidOwner","inputs":[{"name":"owner","type":"address","internalType":"address"}]},{"type":"error","name":"OwnableUnauthorizedAccount","inputs":[{"name":"account","type":"address","internalType":"address"}]}],"bytecode":{"object":"0x60a060405234801561001057600080fd5b50604051613a71380380613a7183398101604081905261002f91610185565b604051806040016040528060098152602001681d5b9919599a5b995960ba1b8152506040518060400160405280600f81526020016e155cd95c93919510dbdb9d1c9858dd608a1b815250604051806040016040528060048152602001631553919560e21b815250848480848481600090816100aa9190610257565b5060016100b78282610257565b5050506001600160a01b0381166100e857604051631e4fbdf760e01b81526000600482015260240160405180910390fd5b6100f181610117565b5060076100fe8682610257565b50506001600160a01b0316608052506103159350505050565b600680546001600160a01b038381166001600160a01b0319831681179093556040519116919082907f8be0079c531659141344cd1fd0a4f28419497f9722a3daafe3b4186f6b6457e090600090a35050565b80516001600160a01b038116811461018057600080fd5b919050565b6000806040838503121561019857600080fd5b6101a183610169565b91506101af60208401610169565b90509250929050565b634e487b7160e01b600052604160045260246000fd5b600181811c908216806101e257607f821691505b60208210810361020257634e487b7160e01b600052602260045260246000fd5b50919050565b601f82111561025257806000526020600020601f840160051c8101602085101561022f5750805b601f840160051c820191505b8181101561024f576000815560010161023b565b50505b505050565b81516001600160401b03811115610270576102706101b8565b6102848161027e84546101ce565b84610208565b6020601f8211600181146102b857600083156102a05750848201515b600019600385901b1c1916600184901b17845561024f565b600084815260208120601f198516915b828110156102e857878501518255602094850194600190920191016102c8565b50848210156103065786840151600019600387901b60f8161c191681555b50505050600190811b01905550565b60805161371761035a60003960008181610c400152818161124b0152818161128701528181611625015281816116610152818161172b015261217d01526137176000f3fe60806040526004361061031a5760003560e01c80638da5cb5b116101ab578063cd9a1e82116100f7578063f2fde38b11610095578063f4a586d01161006f578063f4a586d0146109b7578063f8895cc8146109d7578063fc24c1b6146109f9578063fc361d1214610a1957600080fd5b8063f2fde38b14610962578063f3a77d8314610982578063f44c3bf7146109a257600080fd5b8063e206ad01116100d1578063e206ad01146108d2578063e64f744e146108f2578063e985e9c514610912578063e9ac04401461093257600080fd5b8063cd9a1e8214610892578063d521d06414610513578063e19267ed146108b257600080fd5b8063a22cb46511610164578063b510391f1161013e578063b510391f1461081f578063b88d4fde14610832578063c87b56dd14610852578063cd56d2a31461087257600080fd5b8063a22cb465146107af578063a75573b8146107cf578063b45a3c0e146107ef57600080fd5b80638da5cb5b146106fc5780638f742d161461071a57806393f622e01461073a57806395d89b411461075a57806399e390251461076f5780639e8c79111461078f57600080fd5b8063537b7cfd1161026a57806370a08231116102235780637a37ec8b116101fd5780637a37ec8b146105535780637d6b5030146106a95780638146725d146106c957806382069ba6146106dc57600080fd5b806370a0823114610647578063715018a61461066757806376b90b941461067c57600080fd5b8063537b7cfd14610553578063538cae221461057357806358e23bac146105935780635cf5944d146105d95780636352211e146106075780636b88ddaf1461062757600080fd5b80632bdda365116102d757806342842e0e116102b157806342842e0e146104d357806342f137a8146104f35780634d0a6675146105135780634decc6871461053357600080fd5b80632bdda3651461041057806331eb76da1461043d5780633623bfe9146104b357600080fd5b806301ffc9a71461031f57806306fdde0314610354578063081812fc14610376578063095ea7b3146103ae5780630a3cc989146103d057806323b872dd146103f0575b600080fd5b34801561032b57600080fd5b5061033f61033a366004612ad7565b610a39565b60405190151581526020015b60405180910390f35b34801561036057600080fd5b50610369610a64565b60405161034b9190612b44565b34801561038257600080fd5b50610396610391366004612b57565b610af6565b6040516001600160a01b03909116815260200161034b565b3480156103ba57600080fd5b506103ce6103c9366004612b8c565b610b1f565b005b3480156103dc57600080fd5b506103ce6103eb366004612bc6565b610b2e565b3480156103fc57600080fd5b506103ce61040b366004612bf2565b610c12565b34801561041c57600080fd5b5061043061042b366004612cfa565b610cac565b60405161034b9190612d16565b34801561044957600080fd5b5061045d610458366004612b57565b610da0565b60405161034b9190815181526020808301519082015260408083015190820152606080830151908201526080808301516001600160a01b039081169183019190915260a092830151169181019190915260c00190565b3480156104bf57600080fd5b506103ce6104ce366004612d59565b610e09565b3480156104df57600080fd5b506103ce6104ee366004612bf2565b610e65565b3480156104ff57600080fd5b506103ce61050e366004612d59565b610e80565b34801561051f57600080fd5b506103ce61052e366004612d7b565b610ecc565b34801561053f57600080fd5b5061043061054e366004612b57565b610f7c565b34801561055f57600080fd5b5061039661056e366004612b57565b610fde565b34801561057f57600080fd5b506103ce61058e366004612e2e565b611015565b34801561059f57600080fd5b5060408051808201909152601981527f697066733a2f2f6578616d706c652d736368656d612d757269000000000000006020820152610369565b3480156105e557600080fd5b506105f96105f4366004612d59565b61105d565b60405190815260200161034b565b34801561061357600080fd5b50610396610622366004612b57565b611090565b34801561063357600080fd5b506103ce610642366004612bc6565b61109b565b34801561065357600080fd5b506105f9610662366004612e74565b6111a2565b34801561067357600080fd5b506103ce6111ea565b34801561068857600080fd5b506105f9610697366004612b57565b6000908152600a602052604090205490565b3480156106b557600080fd5b506103ce6106c4366004612eea565b6111fe565b6104306106d7366004612f82565b61123e565b3480156106e857600080fd5b506103ce6106f7366004612d59565b61139d565b34801561070857600080fd5b506006546001600160a01b0316610396565b34801561072657600080fd5b50610369610735366004612b57565b6113e9565b34801561074657600080fd5b50610369610755366004612b57565b61141a565b34801561076657600080fd5b506103696114b2565b34801561077b57600080fd5b506103ce61078a366004612fdb565b6114c1565b34801561079b57600080fd5b506105f96107aa366004612b57565b61150d565b3480156107bb57600080fd5b506103ce6107ca366004613007565b61152e565b3480156107db57600080fd5b5061045d6107ea366004613031565b611539565b3480156107fb57600080fd5b5061033f61080a366004612b57565b6000908152600c602052604090205460ff1690565b6105f961082d366004613065565b611618565b34801561083e57600080fd5b506103ce61084d3660046130d7565b6116fd565b34801561085e57600080fd5b5061036961086d366004612b57565b611793565b34801561087e57600080fd5b506103ce61088d36600461313e565b611807565b34801561089e57600080fd5b506105f96108ad366004612b57565b611899565b3480156108be57600080fd5b506103ce6108cd366004612b8c565b6118bd565b3480156108de57600080fd5b506103ce6108ed366004613180565b61193d565b3480156108fe57600080fd5b506103ce61090d366004612d59565b611991565b34801561091e57600080fd5b5061033f61092d3660046131a4565b6119d8565b34801561093e57600080fd5b5061033f61094d366004612b57565b6000908152600b602052604090205460ff1690565b34801561096e57600080fd5b506103ce61097d366004612e74565b611a06565b34801561098e57600080fd5b506105f961099d366004612b57565b611a44565b3480156109ae57600080fd5b50610369611a68565b3480156109c357600080fd5b506103ce6109d236600461313e565b611a77565b3480156109e357600080fd5b506109ec611b01565b60405161034b91906131f8565b348015610a0557600080fd5b506105f9610a14366004612b57565b611f5a565b348015610a2557600080fd5b506103ce610a343660046132e1565b611f7e565b6000631a2b25a160e11b6001600160e01b031983161480610a5e5750610a5e82612012565b92915050565b606060008054610a7390613350565b80601f0160208091040260200160405190810160405280929190818152602001828054610a9f90613350565b8015610aec5780601f10610ac157610100808354040283529160200191610aec565b820191906000526020600020905b815481529060010190602001808311610acf57829003601f168201915b5050505050905090565b6000610b0182612080565b506000828152600460205260409020546001600160a01b0316610a5e565b610b2a8282336120b9565b5050565b81610b3881611090565b6001600160a01b0316336001600160a01b031614610b7057604051634a0bfec160e01b81523360048201526024015b60405180910390fd5b6000838152600c602052604090205460ff1680151583151514610c0c576000848152600c60205260409020805460ff19168415801591909117909155610be05760405184907f032bc66be43dbccb7487781d168eb7bda224628a3b2c3388bdf69b532a3a161190600090a2610c0c565b60405184907ff27b6ce5b2f5e68ddb2fd95a8a909d4ecf1daaac270935fff052feacb24f184290600090a25b50505050565b6040516311b590b760e21b81526001600160a01b0384811660048301528381166024830152604482018390527f000000000000000000000000000000000000000000000000000000000000000016906346d642dc90606401600060405180830381600087803b158015610c8457600080fd5b505af1158015610c98573d6000803e3d6000fd5b50505050610ca78383836120c6565b505050565b60408051600580825260c082019092526060916020820160a080368337019050509050816000015181600081518110610ce757610ce761338a565b602002602001018181525050816020015181600181518110610d0b57610d0b61338a565b602002602001018181525050816040015181600281518110610d2f57610d2f61338a565b602002602001018181525050816060015181600381518110610d5357610d5361338a565b6020026020010181815250508160a001516001600160a01b031682608001516001600160a01b03161781600481518110610d8f57610d8f61338a565b602002602001018181525050919050565b610da86129b2565b6000828152600960209081526040918290208054835181840281018401909452808452610a5e9392830182828015610dff57602002820191906000526020600020905b815481526020019060010190808311610deb575b5050505050611539565b610e128261214b565b610e3157604051634a0bfec160e01b8152336004820152602401610b67565b600082815260096020526040902080548291906002908110610e5557610e5561338a565b6000918252602090912001555050565b610ca7838383604051806020016040528060008152506116fd565b610e898261214b565b610ea857604051634a0bfec160e01b8152336004820152602401610b67565b600082815260096020526040902080548291906001908110610e5557610e5561338a565b610ed58261214b565b610ef457604051634a0bfec160e01b8152336004820152602401610b67565b600082815260096020526040812080546001600160a01b0392916001600160a01b0319916004908110610f2957610f2961338a565b906000526020600020015416905081836001600160a01b031616811760096000868152602001908152602001600020600481548110610f6a57610f6a61338a565b60009182526020909120015550505050565b600081815260096020908152604091829020805483518184028101840190945280845260609392830182828015610fd257602002820191906000526020600020905b815481526020019060010190808311610fbe575b50505050509050919050565b6000818152600960205260408120805482919060049081106110025761100261338a565b6000918252602090912001549392505050565b8161101f8161214b565b61103e57604051634a0bfec160e01b8152336004820152602401610b67565b60008381526009602090815260409091208351610c0c928501906129fa565b600082815260096020526040812080548390811061107d5761107d61338a565b9060005260206000200154905092915050565b6000610a5e82612080565b816110a581611090565b6001600160a01b0316336001600160a01b0316146110d857604051634a0bfec160e01b8152336004820152602401610b67565b6000838152600b602052604090205460ff1680151583151514610c0c578215611140576000848152600b6020526040808220805460ff191660011790555185917f4d69b51fee53c28bd8b61fe008151577ca65160b5248f6225e74d64fd4cf732891a2610c0c565b6000848152600a6020526040812080549161115a836133a0565b90915550506000848152600b6020526040808220805460ff191690555185917fd7ea826caa575891b88b771d03fe1da3092d4a65c5adeaccc99be085978cebe891a250505050565b60006001600160a01b0382166111ce576040516322718ad960e21b815260006004820152602401610b67565b506001600160a01b031660009081526003602052604090205490565b6111f26121aa565b6111fc60006121d7565b565b6112078261214b565b61122657604051634a0bfec160e01b8152336004820152602401610b67565b6000828152600d60205260409020610ca7828261340e565b6060336001600160a01b037f0000000000000000000000000000000000000000000000000000000000000000161461131457604051639e5ea79d60e01b81526001600160a01b037f00000000000000000000000000000000000000000000000000000000000000001690639e5ea79d9034906112c690899030908a908a908a906004016134f5565b60006040518083038185885af11580156112e4573d6000803e3d6000fd5b50505050506040513d6000823e601f3d908101601f1916820160405261130d9190810190613534565b9050611395565b816001600160401b0381111561132c5761132c612c2f565b604051908082528060200260200182016040528015611355578160200160208202803683370190505b50905060005b828110156113935761136e868686612229565b8282815181106113805761138061338a565b602090810291909101015260010161135b565b505b949350505050565b6113a68261214b565b6113c557604051634a0bfec160e01b8152336004820152602401610b67565b600082815260096020526040902080548291906003908110610e5557610e5561338a565b60606113f482612290565b60405160200161140491906135c9565b6040516020818303038152906040529050919050565b6000818152600d6020526040902080546060919061143790613350565b80601f016020809104026020016040519081016040528092919081815260200182805461146390613350565b8015610fd25780601f1061148557610100808354040283529160200191610fd2565b820191906000526020600020905b8154815290600101906020018083116114935750939695505050505050565b606060018054610a7390613350565b826114cb8161214b565b6114ea57604051634a0bfec160e01b8152336004820152602401610b67565b6000848152600960205260409020805483919085908110610f6a57610f6a61338a565b6000818152600960205260408120805482919082906110025761100261338a565b610b2a338383612322565b6115416129b2565b6000826000815181106115565761155661338a565b60200260200101519050808260000181815250508260018151811061157d5761157d61338a565b6020026020010151905080826020018181525050826002815181106115a4576115a461338a565b6020026020010151905080826040018181525050826003815181106115cb576115cb61338a565b6020026020010151905080826060018181525050826004815181106115f2576115f261338a565b60209081029190910101516001600160a01b03166080830181905260a083015250919050565b6000336001600160a01b037f000000000000000000000000000000000000000000000000000000000000000016146116e85760405163f1ddecf960e01b81526001600160a01b037f0000000000000000000000000000000000000000000000000000000000000000169063f1ddecf990349061169e90889030908990899060040161361c565b60206040518083038185885af11580156116bc573d6000803e3d6000fd5b50505050506040513d601f19601f820116820180604052508101906116e19190613649565b90506116f6565b6116f3848484612229565b90505b9392505050565b6040516311b590b760e21b81526001600160a01b0385811660048301528481166024830152604482018490527f000000000000000000000000000000000000000000000000000000000000000016906346d642dc90606401600060405180830381600087803b15801561176f57600080fd5b505af1158015611783573d6000803e3d6000fd5b50505050610c0c848484846123c1565b606061179e82612080565b5060006117b660408051602081019091526000815290565b905060008151116117d657604051806020016040528060008152506116f6565b806117e084612290565b6040516020016117f1929190613662565b6040516020818303038152906040529392505050565b8181611822826000908152600b602052604090205460ff1690565b611848576040516307045dd960e01b815230600482015260248101839052604401610b67565b6000828152600a6020526040902054811461188657604051631081e84160e21b81523060048201526024810183905260448101829052606401610b67565b611891868686610c12565b505050505050565b6000818152600960205260408120805482919060019081106110025761100261338a565b6118c56123d8565b6118e457604051634a0bfec160e01b8152336004820152602401610b67565b6001600160a01b03821660008181526008602052604090819020839055517faffd0d436417235189c464f3463b54b1009e5aebc9e8e089f1f176e2231f2f92906119319084815260200190565b60405180910390a25050565b6119468261214b565b61196557604051634a0bfec160e01b8152336004820152602401610b67565b61196e81610cac565b60008381526009602090815260409091208251610ca793919291909101906129fa565b61199a8261214b565b6119b957604051634a0bfec160e01b8152336004820152602401610b67565b60008281526009602052604081208054839290610e5557610e5561338a565b6001600160a01b03918216600090815260056020908152604080832093909416825291909152205460ff1690565b611a0e6121aa565b6001600160a01b038116611a3857604051631e4fbdf760e01b815260006004820152602401610b67565b611a41816121d7565b50565b6000818152600960205260408120805482919060039081106110025761100261338a565b606060078054610a7390613350565b8181611a92826000908152600b602052604090205460ff1690565b611ab8576040516307045dd960e01b815230600482015260248101839052604401610b67565b6000828152600a60205260409020548114611af657604051631081e84160e21b81523060048201526024810183905260448101829052606401610b67565b611891868686610e65565b6040805180820182526000808252606060208301528251600780825261010082019094529192909190816020015b611b37612a45565b815260200190600190039081611b2f57905050604080516101008101825260028152600060208201529192508101600c8152600160208201526040016000815260200160008152602001600081526020016040518060400160405280600f81526020016e1b999d1cd7da195b1917d8dbdd5b9d608a1b81525081525081600081518110611bc657611bc661338a565b60200260200101819052506040518061010001604052806003815260200160008152602001600c6013811115611bfe57611bfe6131ce565b815260016020820152604001600081526020016001815260200160008152602001604051806040016040528060118152602001701b5a5b9d195917db999d1cd7d8dbdd5b9d607a1b81525081525081600181518110611c5f57611c5f61338a565b60200260200101819052506040518061010001604052806004815260200160008152602001600c6013811115611c9757611c976131ce565b815260016020820152604001600081526020016002815260200160008152602001604051806040016040528060088152602001671d1bdad95b97da5960c21b81525081525081600281518110611cef57611cef61338a565b60200260200101819052506040518061010001604052806007815260200160008152602001600c6013811115611d2757611d276131ce565b815260016020820152604001600081526020016003815260200160008152602001604051806040016040528060098152602001681b5a5b9d195917d85d60ba1b81525081525081600381518110611d8057611d8061338a565b6020026020010181905250604051806101000160405280600181526020016000815260200160126013811115611db857611db86131ce565b8152600160208201526040016000815260200160048152602001600081526020016040518060400160405280600e81526020016d77616c6c65745f6164647265737360901b81525081525081600481518110611e1657611e1661338a565b60200260200101819052506040518061010001604052806006815260200160008152602001601380811115611e4d57611e4d6131ce565b81526001602082015260400160008152602001600481526020016000815260200160405180604001604052806009815260200168746f6b656e5f75726960b81b81525081525081600581518110611ea657611ea661338a565b6020026020010181905250604051806101000160405280600581526020016000815260200160126013811115611ede57611ede6131ce565b8152600160208201526040016000815260200160048152602001600081526020016040518060400160405280600581526020016437bbb732b960d91b81525081525081600681518110611f3357611f3361338a565b60200260200101819052506040518060400160405280600181526020018281525091505090565b6000818152600960205260408120805482919060029081106110025761100261338a565b8281611f99826000908152600b602052604090205460ff1690565b611fbf576040516307045dd960e01b815230600482015260248101839052604401610b67565b6000828152600a60205260409020548114611ffd57604051631081e84160e21b81523060048201526024810183905260448101829052606401610b67565b612009878787876116fd565b50505050505050565b60006001600160e01b0319821663075ad2d560e51b148061204357506001600160e01b03198216635a2d1e0760e11b145b8061205657506001600160e01b03198216155b8061207157506001600160e01b0319821663f44c3bf760e01b145b80610a5e5750610a5e82612405565b6000818152600260205260408120546001600160a01b031680610a5e57604051637e27328960e01b815260048101849052602401610b67565b610ca78383836001612455565b6001600160a01b0382166120f057604051633250574960e11b815260006004820152602401610b67565b60006120fd83833361255b565b9050836001600160a01b0316816001600160a01b031614610c0c576040516364283d7b60e01b81526001600160a01b0380861660048301526024820184905282166044820152606401610b67565b600061215f6006546001600160a01b031690565b6001600160a01b0316336001600160a01b03161480610a5e575050507f00000000000000000000000000000000000000000000000000000000000000006001600160a01b0316331490565b6006546001600160a01b031633146111fc5760405163118cdaa760e01b8152336004820152602401610b67565b600680546001600160a01b038381166001600160a01b0319831681179093556040519116919082907f8be0079c531659141344cd1fd0a4f28419497f9722a3daafe3b4186f6b6457e090600090a35050565b600e5460408051600580825260c08201909252600092916020820160a0803683375050506000828152600960209081526040909120825161227093919291909101906129fa565b50600e8054906000612281836133a0565b91905055506116f38582612654565b6060600061229d8361266e565b60010190506000816001600160401b038111156122bc576122bc612c2f565b6040519080825280601f01601f1916602001820160405280156122e6576020820181803683370190505b5090508181016020015b600019016f181899199a1a9b1b9c1cb0b131b232b360811b600a86061a8153600a85049450846122f057509392505050565b6001600160a01b03821661235457604051630b61174360e31b81526001600160a01b0383166004820152602401610b67565b6001600160a01b03838116600081815260056020908152604080832094871680845294825291829020805460ff191686151590811790915591519182527f17307eab39ab6107e8899845ad3d59bd9653f200f220920489ca2b5937696c31910160405180910390a3505050565b6123cc848484610c12565b610c0c84848484612746565b60006123ec6006546001600160a01b031690565b6001600160a01b0316336001600160a01b031614905090565b60006001600160e01b031982166380ac58cd60e01b148061243657506001600160e01b03198216635b5e139f60e01b145b80610a5e57506301ffc9a760e01b6001600160e01b0319831614610a5e565b808061246957506001600160a01b03821615155b1561252b57600061247984612080565b90506001600160a01b038316158015906124a55750826001600160a01b0316816001600160a01b031614155b80156124b857506124b681846119d8565b155b156124e15760405163a9fbf51f60e01b81526001600160a01b0384166004820152602401610b67565b81156125295783856001600160a01b0316826001600160a01b03167f8c5be1e5ebec7d5bd14f71427d1e84f3dd0314c0f7b2291e5b200ac8c7c3b92560405160405180910390a45b505b5050600090815260046020526040902080546001600160a01b0319166001600160a01b0392909216919091179055565b6000828152600260205260408120546001600160a01b03908116908316156125885761258881848661286f565b6001600160a01b038116156125c6576125a5600085600080612455565b6001600160a01b038116600090815260036020526040902080546000190190555b6001600160a01b038516156125f5576001600160a01b0385166000908152600360205260409020805460010190555b60008481526002602052604080822080546001600160a01b0319166001600160a01b0389811691821790925591518793918516917fddf252ad1be2c89b69c2b068fc378daa952ba7f163c4a11628f55a4df523b3ef91a4949350505050565b610b2a8282604051806020016040528060008152506128d3565b60008072184f03e93ff9f4daa797ed6e38ed64bf6a1f0160401b83106126ad5772184f03e93ff9f4daa797ed6e38ed64bf6a1f0160401b830492506040015b6d04ee2d6d415b85acef810000000083106126d9576d04ee2d6d415b85acef8100000000830492506020015b662386f26fc1000083106126f757662386f26fc10000830492506010015b6305f5e100831061270f576305f5e100830492506008015b612710831061272357612710830492506004015b60648310612735576064830492506002015b600a8310610a5e5760010192915050565b6001600160a01b0383163b15610c0c57604051630a85bd0160e11b81526001600160a01b0384169063150b7a0290612788903390889087908790600401613691565b6020604051808303816000875af19250505080156127c3575060408051601f3d908101601f191682019092526127c0918101906136c4565b60015b61282c573d8080156127f1576040519150601f19603f3d011682016040523d82523d6000602084013e6127f6565b606091505b50805160000361282457604051633250574960e11b81526001600160a01b0385166004820152602401610b67565b805181602001fd5b6001600160e01b03198116630a85bd0160e11b1461286857604051633250574960e11b81526001600160a01b0385166004820152602401610b67565b5050505050565b61287a8383836128ea565b610ca7576001600160a01b0383166128a857604051637e27328960e01b815260048101829052602401610b67565b60405163177e802f60e01b81526001600160a01b038316600482015260248101829052604401610b67565b6128dd838361294d565b610ca76000848484612746565b60006001600160a01b038316158015906116f35750826001600160a01b0316846001600160a01b03161480612924575061292484846119d8565b806116f35750506000908152600460205260409020546001600160a01b03908116911614919050565b6001600160a01b03821661297757604051633250574960e11b815260006004820152602401610b67565b60006129858383600061255b565b90506001600160a01b03811615610ca7576040516339e3563760e11b815260006004820152602401610b67565b6040518060c001604052806000815260200160008152602001600081526020016000815260200160006001600160a01b0316815260200160006001600160a01b031681525090565b828054828255906000526020600020908101928215612a35579160200282015b82811115612a35578251825591602001919060010190612a1a565b50612a41929150612aac565b5090565b604051806101000160405280600081526020016000815260200160006013811115612a7257612a726131ce565b81526020016000815260200160006001811115612a9157612a916131ce565b81526020016000815260200160008152602001606081525090565b5b80821115612a415760008155600101612aad565b6001600160e01b031981168114611a4157600080fd5b600060208284031215612ae957600080fd5b81356116f681612ac1565b60005b83811015612b0f578181015183820152602001612af7565b50506000910152565b60008151808452612b30816020860160208601612af4565b601f01601f19169290920160200192915050565b6020815260006116f66020830184612b18565b600060208284031215612b6957600080fd5b5035919050565b80356001600160a01b0381168114612b8757600080fd5b919050565b60008060408385031215612b9f57600080fd5b612ba883612b70565b946020939093013593505050565b80358015158114612b8757600080fd5b60008060408385031215612bd957600080fd5b82359150612be960208401612bb6565b90509250929050565b600080600060608486031215612c0757600080fd5b612c1084612b70565b9250612c1e60208501612b70565b929592945050506040919091013590565b634e487b7160e01b600052604160045260246000fd5b604051601f8201601f191681016001600160401b0381118282101715612c6d57612c6d612c2f565b604052919050565b600060c08284031215612c8757600080fd5b60405160c081016001600160401b0381118282101715612ca957612ca9612c2f565b60409081528335825260208085013590830152838101359082015260608084013590820152905080612cdd60808401612b70565b6080820152612cee60a08401612b70565b60a08201525092915050565b600060c08284031215612d0c57600080fd5b6116f68383612c75565b602080825282518282018190526000918401906040840190835b81811015612d4e578351835260209384019390920191600101612d30565b509095945050505050565b60008060408385031215612d6c57600080fd5b50508035926020909101359150565b60008060408385031215612d8e57600080fd5b82359150612be960208401612b70565b60006001600160401b03821115612db757612db7612c2f565b5060051b60200190565b600082601f830112612dd257600080fd5b8135612de5612de082612d9e565b612c45565b8082825260208201915060208360051b860101925085831115612e0757600080fd5b602085015b83811015612e24578035835260209283019201612e0c565b5095945050505050565b60008060408385031215612e4157600080fd5b8235915060208301356001600160401b03811115612e5e57600080fd5b612e6a85828601612dc1565b9150509250929050565b600060208284031215612e8657600080fd5b6116f682612b70565b6000806001600160401b03841115612ea957612ea9612c2f565b50601f8301601f1916602001612ebe81612c45565b915050828152838383011115612ed357600080fd5b828260208301376000602084830101529392505050565b60008060408385031215612efd57600080fd5b8235915060208301356001600160401b03811115612f1a57600080fd5b8301601f81018513612f2b57600080fd5b612e6a85823560208401612e8f565b60008083601f840112612f4c57600080fd5b5081356001600160401b03811115612f6357600080fd5b602083019150836020828501011115612f7b57600080fd5b9250929050565b60008060008060608587031215612f9857600080fd5b612fa185612b70565b935060208501356001600160401b03811115612fbc57600080fd5b612fc887828801612f3a565b9598909750949560400135949350505050565b600080600060608486031215612ff057600080fd5b505081359360208301359350604090920135919050565b6000806040838503121561301a57600080fd5b61302383612b70565b9150612be960208401612bb6565b60006020828403121561304357600080fd5b81356001600160401b0381111561305957600080fd5b61139584828501612dc1565b60008060006040848603121561307a57600080fd5b61308384612b70565b925060208401356001600160401b0381111561309e57600080fd5b6130aa86828701612f3a565b9497909650939450505050565b600082601f8301126130c857600080fd5b6116f683833560208501612e8f565b600080600080608085870312156130ed57600080fd5b6130f685612b70565b935061310460208601612b70565b92506040850135915060608501356001600160401b0381111561312657600080fd5b613132878288016130b7565b91505092959194509250565b6000806000806080858703121561315457600080fd5b61315d85612b70565b935061316b60208601612b70565b93969395505050506040820135916060013590565b60008060e0838503121561319357600080fd5b82359150612be98460208501612c75565b600080604083850312156131b757600080fd5b6131c083612b70565b9150612be960208401612b70565b634e487b7160e01b600052602160045260246000fd5b600281106131f4576131f46131ce565b9052565b6020815260006060820183516020840152602084015160408085015281815180845260808601915060808160051b870101935060208301925060005b818110156132d557607f198786030183528351805186526020810151602087015260408101516014811061326a5761326a6131ce565b8060408801525060608101516060870152608081015161328d60808801826131e4565b5060a081015160a087015260c081015160c087015260e0810151905061010060e08701526132bf610100870182612b18565b9550506020938401939290920191600101613234565b50929695505050505050565b600080600080600060a086880312156132f957600080fd5b61330286612b70565b945061331060208701612b70565b93506040860135925060608601356001600160401b0381111561333257600080fd5b61333e888289016130b7565b95989497509295608001359392505050565b600181811c9082168061336457607f821691505b60208210810361338457634e487b7160e01b600052602260045260246000fd5b50919050565b634e487b7160e01b600052603260045260246000fd5b6000600182016133c057634e487b7160e01b600052601160045260246000fd5b5060010190565b601f821115610ca757806000526020600020601f840160051c810160208510156133ee5750805b601f840160051c820191505b8181101561286857600081556001016133fa565b81516001600160401b0381111561342757613427612c2f565b61343b816134358454613350565b846133c7565b6020601f82116001811461346f57600083156134575750848201515b600019600385901b1c1916600184901b178455612868565b600084815260208120601f198516915b8281101561349f578785015182556020948501946001909201910161347f565b50848210156134bd5786840151600019600387901b60f8161c191681555b50505050600190811b01905550565b81835281816020850137506000828201602090810191909152601f909101601f19169091010190565b6001600160a01b0386811682528516602082015260806040820181905260009061352290830185876134cc565b90508260608301529695505050505050565b60006020828403121561354657600080fd5b81516001600160401b0381111561355c57600080fd5b8201601f8101841361356d57600080fd5b805161357b612de082612d9e565b8082825260208201915060208360051b85010192508683111561359d57600080fd5b6020840193505b828410156135bf5783518252602093840193909101906135a4565b9695505050505050565b7f697066733a2f2f3c796f75725f697066735f686173683e2f0000000000000000815260008251613601816018850160208701612af4565b632e706e6760e01b6018939091019283015250601c01919050565b6001600160a01b038581168252841660208201526060604082018190526000906135bf90830184866134cc565b60006020828403121561365b57600080fd5b5051919050565b60008351613674818460208801612af4565b835190830190613688818360208801612af4565b01949350505050565b6001600160a01b03858116825284166020820152604081018390526080606082018190526000906135bf90830184612b18565b6000602082840312156136d657600080fd5b81516116f681612ac156fea264697066735822122080affec3d8568ff4817f410ac4514efd5943bf9c31e073ee1edacdcfc2c8eccc64736f6c634300081a0033","linkReferences":{}},"methodIdentifiers":{"approve(address,uint256)":"095ea7b3","balanceOf(address)":"70a08231","frozen(uint256)":"e9ac0440","getApproved(uint256)":"081812fc","getFreezeNonce(uint256)":"76b90b94","getScopeName()":"f44c3bf7","imageURI(uint256)":"8f742d16","isApprovedForAll(address,address)":"e985e9c5","loadMetadata(uint256)":"31eb76da","loadMintedat(uint256)":"f3a77d83","loadMintednftscount(uint256)":"cd9a1e82","loadNftsheldcount(uint256)":"9e8c7911","loadOwner(uint256)":"537b7cfd","loadPackedMetadata(uint256)":"4decc687","loadPackedMetadataSlot(uint256,uint256)":"5cf5944d","loadTokenid(uint256)":"fc24c1b6","loadTokenuri(uint256)":"93f622e0","loadWalletaddress(uint256)":"7a37ec8b","locked(uint256)":"b45a3c0e","mint(address,bytes)":"b510391f","mintBatch(address,bytes,uint256)":"8146725d","name()":"06fdde03","owner()":"8da5cb5b","ownerOf(uint256)":"6352211e","packMetadata((uint256,uint256,uint256,uint256,address,address))":"2bdda365","renounceOwnership()":"715018a6","safeTransferFrom(address,address,uint256)":"42842e0e","safeTransferFrom(address,address,uint256,bytes)":"b88d4fde","safeTransferFromWithFreezeNonce(address,address,uint256,bytes,uint256)":"fc361d12","safeTransferFromWithFreezeNonce(address,address,uint256,uint256)":"f4a586d0","schema()":"f8895cc8","schemaURI()":"58e23bac","setApprovalForAll(address,bool)":"a22cb465","setFrozen(uint256,bool)":"6b88ddaf","setLocked(uint256,bool)":"0a3cc989","setPermissions(address,uint256)":"e19267ed","storeMetadata(uint256,(uint256,uint256,uint256,uint256,address,address))":"e206ad01","storeMintedat(uint256,uint256)":"82069ba6","storeMintednftscount(uint256,uint256)":"42f137a8","storeNftsheldcount(uint256,uint256)":"e64f744e","storeOwner(uint256,address)":"4d0a6675","storePackedMetadata(uint256,uint256[])":"538cae22","storePackedMetadataSlot(uint256,uint256,uint256)":"99e39025","storeTokenid(uint256,uint256)":"3623bfe9","storeTokenuri(uint256,string)":"7d6b5030","storeWalletaddress(uint256,address)":"d521d064","supportsInterface(bytes4)":"01ffc9a7","symbol()":"95d89b41","tokenURI(uint256)":"c87b56dd","transferFrom(address,address,uint256)":"23b872dd","transferFromWithFreezeNonce(address,address,uint256,uint256)":"cd56d2a3","transferOwnership(address)":"f2fde38b","unpackMetadata(uint256[])":"a75573b8"},"id":21}